:1000000002291EC0CFCDF5B5E7D7D3CAFDC2EB4458
:10001000697900CAD6BBFACCD4B1A6C9A8D2BBC9EB
:10002000A800CFD4CABEB2CECAFD3A203332302A9D
:10003000333230203136CEBB000000000000E0E05B
:100040006060606060606060E000006060600000B0
:10005000000080E0E0000080000000E0E000000020
:1000600060606060E060600000E060606060606050
:100070006060E0E000000000000000000000FFFF02
:10008000809F9F9F9F9F8080FF00008C8C0C8F8F94
:100090006F6F8F1313F0F0709C9C6090900C0CEFBE
:1000A0006F6F8F8F63F3F30000FF80809F9F9F9F90
:1000B0009F80FFFF00000000000000000000606063
:1000C000E09C9C10108C0C0C6C60607C7C731C1C85
:1000D000EFEF8F9F9F000073EFEF0FECECECEC90D5
:1000E0006F6F03038FFFFF8C8C700000608C8C603F
:1000F0006070FCFC00000000000000000000C0C0B8
:10010000BDCDCD4E4E7F7070B24C4C0C0CFC4040BF
:100110000D0D7F7D7D8C8CB2818140838303037FB5
:10012000F0F0C0C07D71713131820000403D3D3240
:1001300032FC3F3F000000000000000000004F4F75
:10014000433D3D8C8C4CC0C04D7070CCCCC34E4EEA
:100150004E4EBEFCFC0101413D3D7273738C8C3CE4
:100160000303FDFD00C0C0C2C2FF404030C2C28ECA
:100170008EBFFEFE000000000000000000003636CA
:100180000838380F0F003F3F360808FFFFCF3030E8
:10019000C8C8C13F3F0606C0383836CECEF9F9CEC2
:1001A000FEFE090930F9F93939373636F80101C749
:1001B000C70FCFCF00000000000000000000FFFFCD
:1001C00001F9F9F9F9F90101FF0000CECEFE393944
:1001D0003F3FC70F0F0F0FFFC7C7310808FEFEC60E
:1001E000F6F63F3FF13F3FC8C809C8C8FFC7C7314F
:1001F0003139C7C7000000000000000000000707F9
:1002000006060606060606060700000000070606A4
:1002100000000607070000060606070101070700A1
:100220000707070701070701010607070601010085
:10023000000706060000000000202A3A3031323361
:10024000343536373839414243446979000000007B
:10025000000000000000000000000000404080F0AE
:10026000804040000202010F01020200000000C0B5
:10027000C0000000000000303000000000E0100866
:100280000810E000000F102020100F0000001010D8
:10029000F8000000000020203F2020000070080827
:1002A0000808F0000030282422213000003008081F
:1002B000088870000018202121221C0000008040C6
:1002C00030F8000000060524243F242400F8888824
:1002D000880808000019202020110E0000E0108876
:1002E00088900000000F112020201F00001808082F
:1002F000886818000000003E0100000000708808B7
:1003000008887000001C222121221C0000F008082F
:100310000810E0000001122222110F000000C03876
:10032000E0000000203C23020227382008F88888DB
:1003300088700000203F202020110E00C0300808E7
:1003400008083800071820202010080008F80808BE
:100350000810E000203F202020100F000080989817
:10036000000000000020203F20200000808080004E
:100370000080808000818678180601000810000047
:10038000100013FF0239FF024C20212223242526CE
:100390002728292A2B2C2D2E2F3031323334353675
:1003A0003738393A3B3C3D3E3F4041424344454665
:1003B0004748494A4B4C4D4E4F5051525354555655
:1003C0005758595A5B5C5D5E5F6061626364656645
:1003D0006768696A6B6C6D6E6F7071727374757635
:1003E0007778797A7B7C7D7E000000000000000039
:1003F0005F000000000300030000147F147F14005E
:10040000004C7A4F320000661668660000384F4D87
:10041000320000000003000000003E410000000028
:10042000413E0000001C3E1C000000083E08000089
:1004300000000060000000080808080000004000FC
:1004400000000040300C0300003E41413E000042ED
:100450007F400000006251494600002249493600B1
:100460000038267F2000004F49493100003E4949AD
:1004700032000003710907000036494936000026A2
:1004800049493E0000002400000000402400000014
:100490000008142241000014141414000041221416
:1004A0000800000251090600000E71497E00007E1E
:1004B00011117E00007F49493600003E4141220073
:1004C000007F41413E00007F49494100007F09090A
:1004D0000100003E41493A00007F08087F000041CA
:1004E0007F410000003040403F00007F081463005F
:1004F000007F40404000007F06067F00007F061816
:100500007F00007F41417F00007F09090600003E17
:1005100051617E00007F19294600002649493200BA
:1005200000017F010100003F40403F00000F70705C
:100530000F00007F30307F0000631C1C6300030449
:10054000780403000061594D430000007F41000022
:10055000030C304000000000417F00000002010257
:100560000000004040404000000003000000002068
:1005700058587800007F484830000030484848000C
:10058000003048487F0000305858100000087C0AAE
:1005900008000010A8A87800007F0878000000007C
:1005A00074000000008080740000007F1028480064
:1005B00000407F4000000078087878000078080844
:1005C000700000304848300000F8484830000030E3
:1005D0004848F800007810080800005058682800C3
:1005E00000087C4800000038404078000018606037
:1005F00018001860386018000048303048000018B3
:10060000A0A0780000486858480000087741000022
:1006100000007F0000000041770800000002010296
:1006200001000608000106005FFF0389FF03E8D20E
:10063000BBCEBBB2CED7D3B1A6CAD6C9A8CAFDCF4E
:10064000D4BBFACCD4CDF5B5E7C2EBCABEC0CF80DF
:10065000808080808080808080808080808000009A
:10066000000000000000000000000000000000008A
:100670008060F80710901011161010D010000001C3
:100680000000FF4040415E4040704E41404000004D
:100690002020A86C2A3928A82A6CA8202000000253
:1006A000828190924A49452422100801020200806A
:1006B000828282828282E2A2928A86828080000086
:1006C0000000000040807F000000000000000010DB
:1006D0004C4444444445C64444444444540C0040BF
:1006E0004044444444447F444454644440400000F3
:1006F000002424242424FC2222222322000000029D
:100700000202020242827F02020202020202001080
:100710001010FF109004848484848484FC000004FE
:1007200044827F0100202020202020207F00009094
:10073000523410FF10345280708F0808F80800827D
:100740009A566322528E008040330C334080000062
:100750000000FE92929292929292FE00000000405F
:10076000424458407F4040407F405048464000103F
:1007700010D0FF901000FE020202FE0000000004F4
:100780000300FF0083601F0000003F40407800101E
:1007900060028C00104837E424240404FC000004A8
:1007A000047E0100011D111F115D81403F0000000A
:1007B000028282828282FE828282828202000040E3
:1007C0004040404040407F4040404040404000006A
:1007D00000F888888888FF88888888F800000000EA
:1007E000001F080808087F888888889F80F0000418
:1007F00084E45C44C40002F2828282FE80800002B3
:10080000017F10103F00080808084888403F00405A
:10081000404242424242C2424242424240400020A2
:100820001008060040807F0000000204083000200D
:100830002024242424BF64243428242220200010CF
:100840000804023F454444424242417800000010FF
:10085000100100200010FF062FFF064FEFBCEFBC79
:10086000EFBCEFBCEFBCEFBCEFBCEFBCEFBCEFBC30
:10087000EFBCEFBCEFBCEFBCEFBCEFBCEFBCEFBC20
:10088000EFBCEFBCEFBCEFBCEFBCEFBCEFBCEFBC10
:10089000EFBCEFBCEFBCEFBCEFBCEFBCEF9CE7BC28
:1008A000EF9CEFDDDFBBDF9BEF9CEF9DE7BCEFBD77
:1008B000EFBDEF9CEFBCEFBCEFBCEFBCEFBCEFBCFF
:1008C000EFBCEFBCEFBCEFBCE7BCEF9CEFBCEFBCF8
:1008D000EFBCEFBCEFBCEFBCEFBCEFBCEFBCEFBCC0
:1008E000EFBCEFBCEFBCEFBCEFBCEFBCEFBCEFBCB0
:1008F000EFBCEFBCEFBCEFBCEFBCEFBCEFBCEFBCA0
:10090000EFBCEFBCEFBCEFBCEFBCEFBCE7BCEF9DB6
:10091000F7DEAF1425038E51F7DDEF9CEFBDE7BB8B
:10092000C758E7BCEFBCEFBCEFBCEFBCEFBCEFBC03
:10093000EFBCEFBCEFBCEFBCE7BCEF9CEFBCEFBC87
:10094000EFBCEFBCEFBCEFBCEFBCEFBCEFBCEFBC4F
:10095000EFBCEFBCEFBCEFBCEFBCEFBCEFBCEFBC3F
:10096000EFBCEFBCEFBCEFBCEFBCE7BCE7BCEFBC3F
:10097000EFBCEF9CEF9CEF9CE7BCEF9CEF9CF7DD9E
:10098000BF5714E21482DFDBEFBDEFBDD77A6DCC29
:100990004528D779EFBDEFBCEFBCEFBCEFBCEFBC97
:1009A000EFBCEFBCEFBCEFBCE7BCEF9CEFBCEFBC17
:1009B000EFBCEFBCEFBCEFBCEFBCEFBCEFBCEFBCDF
:1009C000EFBCEFBCEFBCEFBCEFBCEFBCEFBCEFBCCF
:1009D000EFBCEFBCEFBCEFBCE7BCEF9CEF9CE7BC0F
:1009E000E79CE7BCE7BCE7BCEF9CE7BCEFBDE7DCFE
:1009F000350503A09E73F7FEEFBDDF9A658B354585
:100A000055CAEFBDEFBCEFBCEFBCEFBCEFBCEFBC19
:100A1000EFBCEFBCEFBCEFBCE7BCEF9CEFBCEFBCA6
:100A2000EFBCEFBCEFBCEFBCEFBCEFBCEFBCEFBC6E
:100A3000EFBCEFBCEFBCEFBCEFBCEFBCEFBCEFBC5E
:100A4000EFBCEFBCEFBCEFBCEF9CE7BCE7BCE7BC86
:100A5000EF9CEFBCEF9CEF9CEFBCEFBCF7FE6E0D84
:100A600003204C89F7FEEFBDEFDD65CC252435066C
:100A7000D779EFBDEF9CEFBCEFBCEFBCEFBCEFBC98
:100A8000EFBCEFBCEFBCEFBCE7BCEF9CEFBCEFBC36
:100A9000EFBCEFBCEFBCEFBCEFBCEFBCEFBCEFBCFE
:100AA000EFBCEFBCEFBCEFBCEFBCEFBCEFBCEF9C0E
:100AB000EFBCEFBCEF9CEF9CE7BCEF9CEF9DEFBD64
:100AC000EFBDEFBDEFDDEFBDEFBDF7DEBF5703407C
:100AD0000AC0D79BF7DEF7FE864F14A10C61AEF477
:100AE000F7DEEF9CE7BCEFBCEFBCEFBCEFBCEFBCAC
:100AF000EFBCEFBCEFBCEFBCE7BCEF9CEFBCEFBCC6
:100B0000EFBCEFBCEFBCEFBCEFBCEFBCEFBCEFBC8D
:100B1000EFBCEFBCEFBCEFBCEFBCEFBCEF9CE7BCA5
:100B2000EF9CEF9CE7BCEFBCEFBDF7DDE7BCCF3837
:100B3000BEF6A6F39EF39ED2A6D4BF574CC9024080
:100B40004407FFFFF7FE864F040003609632F7FF6D
:100B5000EF9CE7BCEF9CEFBCEFBCEFBCEFBCEFBC85
:100B6000EFBCEFBCEFBCEFBCE7BCEF9CEFBCEFBC55
:100B7000EFBCEFBCEFBCEFBCEFBCEFBCEFBCEFBC1D
:100B8000EFBCEFBCEFBCEFBCEFBCEFBCE79CEF9C55
:100B9000E7BCE7BCEF9DEFDDD7599ED37EAF76ED86
:100BA0007F2E772E776E776E772D6ECC6EAC55AA32
:100BB0003C465D2B3485038003204C89F7FEEFBC57
:100BC000EF9CE79CEF9CEFBCEFBCEFBCEFBCEFBC35
:100BD000EFBCEFBCEFBCEFBCE7BCEF9CEFBCEFBCE5
:100BE000EFBCEFBCEFBCEFBCEFBCEFBCEFBCEFBCAD
:100BF000EFBCEFBCEFBCEF9CEFBCE7BCEF9CE7BCED
:100C0000EF9DEFBDDF9B9692768D7F2F879087B00B
:100C100087907F8E7FAE7FAE77AD778D772D76ED27
:100C200066AB45C7140202E002E0CF59F7DEEF9C45
:100C3000EF9CE7BCEF9CEFBCEFBCEFBCEFBCEFBCA4
:100C4000EFBCEFBCEFBCEFBCE7BCEF9CEFBCEFBC74
:100C5000EFBCEFBCEFBCEFBCEFBCEFBCEFBCEFBC3C
:100C6000EFBCEFBCEF9CEFBCE79CEF9CEFBDEFDD72
:100C7000F7DEC7787EAE7F4E8FB08F90878F7F8EE6
:100C8000778D778D778E778D778D6F6C6F6C6F4CDE
:100C900066EC5E8A5E4A2C841B83EFDDEFBDEF9C21
:100CA000E79CEF9CE7BCEFBCEFBCEFBCEFBCEFBC3C
:100CB000EFBCEFBCEFBCEFBCE7BCEF9CEFBCEFBC04
:100CC000EFBCEFBCEFBCEFBCEFBCEFBCEFBCEFBCCC
:100CD000EFBCEFBCE79CEFBCEFDDF7FEE79CCED9A5
:100CE000AE745DCB7F6E8FB087D07F8E6F6C5F4AA6
:100CF0005F4A6F8C6F6C776C6F6C6F6C676C6F6C2E
:100D0000674B5F0A566956493D26C738F7DEEFBC88
:100D1000EFBCEF9DE7BCEFBCEFBCEFBCEFBCEFBCA2
:100D2000EFBCEFBCEFBCEFBCE7BCEF9CEFBCEFBC93
:100D3000EFBCEFBCEFBCEFBCEFBCEFBCEFBCEFBC5B
:100D4000EFBCE79CEFBCF7FED71A63EB22641A02F4
:100D50001A6322C422C33BC655896F2C678B5F6917
:100D6000576957495F6A676B676A5F6A57495749AE
:100D70005749576956E946472DE43525CF18F7DE20
:100D8000EF9CE7BCEF9CEFBCEFBCEFBCEFBCEFBC53
:100D9000EFBCEFBCEFBCEFBCE7BCEF9CEFBCEFBC23
:100DA000EFBCEFBCEFBCEFBCEFBCEFBCEFBCEFBCEB
:100DB000EFBCE79CF7FEBE77222312624CC9766D2A
:100DC0007F0E76ED5E4B454833E52BA54DC8576940
:100DD00057694F484F4857484F4847274747472785
:100DE0004727474746E636852E241D8234E5D779C6
:100DF000EFDEEF9CE7BCEFBCEFBCEFBCEFBCEFBCA1
:100E0000EFBCEFBCEFBCEFBCE7BCEF9CEFBCEFBCB2
:100E1000EFBCEFBCEFBCEFBCEFBCEFBCEFBCEFBC7A
:100E2000E79CEFBDEFBD32651AA26E8C87EF6F8C29
:100E3000678B676A5789578957694E882CC52CA4D8
:100E40004F084F684F474F473F46372537242F24D9
:100E50002F0436E536C52E85262325C30D2144E70C
:100E6000E7DCEFBDEF9CEFBCEF9CEFBCEFBCEFBC51
:100E7000EFBCEFBCEFBCEFBCE7BCEF9CEFBCEFBC42
:100E8000EFBCEFBCEFBCEFBCEFBCEFBCEFBCEFBC0A
:100E9000EF9CEFDDBE760A215649678B5F6A5F6A79
:100EA0005769574947473F263F463F4647663625DD
:100EB00024E33EA647474727472637252F03270326
:100EC00026E326A326A42663262425E31D820CC13F
:100ED00075AEF7FEEF9CEF9CE7BCEF9CEFBCEFBC60
:100EE000EFBCEFBCEFBCEFBCE7BCEF9CEFBCEFBCD2
:100EF000EFBCEFBCEFBCEFBCEFBCEFBCEFBCEF9CBA
:100F0000E7BCF7DE9DD21B8257895749576957497D
:100F100057695768476747463F45374537453F4517
:100F200037052E242EA437253F45372427021EE2FD
:100F30001EC21E821E831E421E031DC22583154231
:100F40000400BEF6F7DEEF9CE7BCEF9CEFBCEFBC05
:100F5000EFBCEFBCEFBCEFBCE7BCEF9CEFBCEFBC61
:100F6000EFBCEFBCEFBCEFBCEFBCEFBCEFBCEF9C49
:100F7000E7BCF7DE85102D2557894F485749678A0A
:100F80004F282E84260326032E4436E53745372482
:100F9000372437242EC42703270327021EE11F010D
:100FA0001E8116411641162115C11DC215A11542FB
:100FB0000C003BA8EF9CEFBDEF9CE7BCEFBCEFBC87
:100FC000EFBCEFBCEFBCEFBCE7BCEF9CEFBCEFBCF1
:100FD000EFBCEFBCEFBCEFBCEFBCEFBCEFBCEFBCB9
:100FE000EF9CF7FE8D912DE54767574967AB3EC6ED
:100FF0001DC20D000CA00CC10CE015A22E843725DB
:101000002F242F242F2427031EE216E116E116C0F9
:1010100016401641164115E115C115C115410BC108
:101020000A6101C0AE15EFDEEFBCE79CEFBCEFBC80
:10103000EFBCEFBCEFBCEFBCE7BCEF9CEFBCEFBC80
:10104000EFBCEFBCEFBCEFBCEFBCEFBCEFBCE7BC50
:10105000EF9CF7DDA6543644474667AB3EC615A164
:101060000CC0556A9632A6346DAC14A10D411EA376
:101070002F242F232F2326E216E116E016C00E8020
:1010800016610E400E0015C115C015211321120165
:101090000A21026064ACF7FEEF9CE7BCEFBCEFBC3A
:1010A000EFBCEFBCEFBCEFBCE7BCEF9CEFBCEFBC10
:1010B000EFBCEFBCEFBCEFBCEFBCEFBCEFBCEF9CF8
:1010C000EF9CF7DE9751372457693EC615A114A24D
:1010D0009632D6DAD6BBD69BD6DA9E1314A10D80F3
:1010E0001EE21F021F021EE116C016C00EA00E60F7
:1010F0000E200E200DC015C115010AA109E002C184
:101100000C000CA02443E7DCEFBDE79CEFBCEFBC78
:10111000EFBCEFBCEFBCEFBCE7BCEF9CEFBCEFBC9F
:10112000EFBCEFBCEFBCEFBCEFBCEFBCEFBCE79C8F
:10113000EFBDC77836853F453F2615C11482AE9472
:10114000DEFCE73CEF7DEF9DEF5DE73DAE940C816B
:101150000E0016E116C016E116C00E8016810E2094
:101160000E000DC00DE00D21028002000B600CC1CD
:101170000D200D000440A6D4F7DEE79CEFBCEFBCC9
:10118000EFBCEFBCEFBCEFBCEFBCE79CEFBCEFBC2F
:10119000EFBCEFBCEFBCEFBCEFBCEFBCEFBCEF9C17
:1011A000EFBD76CE2F033F651E620CE0A654E71D0F
:1011B000EF7DFFDFFFFFFFFFFFFFF7BFF77E9652D8
:1011C00004C0168016E016C10EA016800E400E2038
:1011D0000DE00DE00D8102A001E00BE00D2004E028
:1011E00003E003C00380650BF7FEEF9CEFBCEFBC90
:1011F000EFBCEFBCEFBCE79CE79CEF9CEFBCEFBC07
:10120000EFBCEFBCE7BCE7BCEFBCEF9CE7BCEF9CDE
:10121000EFBD5689372427030D804508C658F7BD12
:10122000FFFFFFFFFFFFFFFFFFFFFFFFF7BEEF7EA8
:101230004D490560170116A00E800E400E200E00CD
:101240000DC00DC0038002000C200D21046013614D
:1012500074CEA5D46CAC2BA5E7BBEFBDEF9CEF9C87
:10126000E7BCEFBCEFBCEFBCE79CEF9CEFBCEFBC76
:10127000EFBCE7BCEF9CEF9CE7BCE7BCEFBDF7BE63
:10128000E7DC46C72F4316A114E10120198232651D
:10129000C657FFFFFFFFFFFFFFFFFFFFFFFFF77FC7
:1012A000BED704C00E6016A00E400E200E000DC06A
:1012B0000DE00CE002600C200D2004201B23B6364C
:1012C000DEFBCE79CE7974AEBED7F7BDE7BCE7BC06
:1012D000EF9CE7BCE79CE79CE79CEF9CEFBCEFBC76
:1012E000EFBCEF9CE7BCEFBCF7BEF7DEDFBBB7554A
:1012F00076AD36E51F02162103006BEDF7FE853053
:101300000160BE36FFFFFFFFFFFFFFFFFFFFF77E1D
:10131000E73C4D29058016810E200E200DC00DC022
:101320000DA00CA00C6114E104002343C6B8EF3DEE
:10133000E77CE73CDEFBB65795D2F7FEEF9DEF9CCE
:10134000EF9CEF9DEFBCE79CE79CEF9CEF9CE79C3C
:10135000EF9CEFBCF7BEEFDDB7766EAD3E8636E5AF
:10136000372537441F0215A00120A513FFFFBEB784
:1013700001E03285FFFFFFFFFFFFFFFFFFFFEF9D53
:10138000E6FC95D104A016810E400DE00DC00DA025
:101390000D210CC10CA103E01B23BE77EF5DEF9D77
:1013A000F7DFFFFFF79EDF1B7D2FAE95EFFDFFFF01
:1013B000F7DDEFBDEF9CE79CE79CEF9CE7BCEFBC43
:1013C000F7BDE7BC9F3356C936A437053F463F46B5
:1013D0003F252F241EE10D00006018E273ED21A4CB
:1013E00009A00140D6D9FFFFFFFFFFFFFFDFEF7D20
:1013F000DEDBB6150C2016220E4005E00DC00D40B8
:101400000C810C410BC11322B656DF1CE75DF7BE01
:10141000FFFFFFFFFFDFE73C7D0F03402C24656CDF
:10142000AEB5E7BCF7DEEF9CE79CE79CEFBCF7DED0
:10143000AF75466736C53F263F473F2637253725D8
:1014400037241F0216E10C0100000000000000001C
:1014500011C00140BE36FFFFFFDFF7BEEF5DDEFBD0
:10146000CE7AB6381BE21D0125E215A1058104E103
:101470000C4113E112E1430763CCD6DAEF9EFFBEC5
:10148000FFFFFFFFFFFFE71C9DB303A004400480A4
:1014900004402C64AED5F7FEEF9CE79CF7BE8ED1DE
:1014A0002E4457484F683F263F0537042F0426E354
:1014B00026C316E116E10B210000000000000080A9
:1014C00009A01982E75CF7BFEF7DE73DD6FBCE7A36
:1014D000C5D4CD4BBC82CC61CC21BC218C614400F5
:1014E0000BE103612AA5D6BA21E33AA7F7BEFFDFD5
:1014F000FFFFFFFFF7BEDEDBADB5138104600CE03C
:101500000D0004E004006DACF7FDEF9DAF752E6497
:101510006FAC5749370537252EE426C326A326830B
:101520001E63166116820AC100000040110200A16C
:1015300000C08CB0DEDAD699D698CE79C637CD4CBD
:10154000F525FD42FD21FCC1FCA1FC80FC40FC41D5
:10155000A3E12260006021A509210961D6FAFFDF1D
:10156000FFFFF7DFE73CCE7AA5B40B600C400CE13F
:101570000D210D210D00044075CDF7DE56895F4A1F
:10158000676B3F06370526C326A31E831E431E2313
:101590001DE20DE114E109A018C031E142617B8137
:1015A000BD03D525CC82D482C3E2BBA2DCA4FD84DA
:1015B000FD42FD00FCE1FCC1FCA1FC80FC40FC60A4
:1015C000FC40B34120C02100296029C1CED8EFBE24
:1015D000EF9EE75DD6BBCE3A6CEE03400C000CA14B
:1015E0000D010D410D410D000420CF593E266F6CB9
:1015F0003EC62EE41E831E821E631DE31DA20D2126
:1016000014805462ADA6DE47F6A7FEE6FF05FEE3B2
:10161000FE62FE21FDC1FD20F480EC80FD83FD8192
:10162000FD20FD01FCE1FCC1FCA0FC80FC40FC6055
:10163000FC00FC20DBA1C361CB61CB61D404DC687E
:10164000DCCADD0BCD0D842A22A203610BC10C4143
:101650000CC10D410D610D2104A06D6D2E054F28AB
:101660002EA526A326A31E431DE315620CA0650428
:10167000D68CFF8DFF4AFF48FF27FEE5FEE4FE8380
:10168000FE83FE82FE01FDA1FD21FD81FDA1FD4144
:10169000FD41FD01FCE1FCC1FCA1FC80FC40FC60C3
:1016A000FC20FC20F3E0CB40CB40DB60E360E36058
:1016B000E340E340E340DB80D3609B6053210BC1F8
:1016C0000C810D010D410D410CC044C845E7268336
:1016D0002EA526A326631E231D820C81A60BFFF7D1
:1016E000FFF3FF2BFF28FF27FF06FEC5FEE5FEA345
:1016F000FEA2FE82FE21FE01FDE1FDA1FDA1FD6134
:10170000FD41FD01FCE1FCC1FCA1FC80FC40FC6052
:10171000FC00FC00FC00EB80DB40E360EB80EB8036
:10172000EB80E380EB80EBA0EBA0F380F380A38160
:1017300023810CA10D210D2104C03466B6F515627C
:101740002EA42EA326431E0315224483FFFAFFFB7B
:10175000FF91FF4BFF29FF07FF06FEC4FEC4FE8377
:10176000FE82FE82FE21FE21FE01FDA1FDA1FD61A2
:10177000FD41FD01FCE1FCC1FCA1FC80FC40FC60E2
:10178000FC20FC00FC00FBC0EBA0EB80EB80F3A096
:10179000F3A0EBA0EB80EBA0EB80E380EB80F38089
:1017A00093610C210CE10CE104005CCBF7FE9691F7
:1017B00015612E4326441DE30D211BE1F772FFF84E
:1017C000FFF7FFB2FF8FFF6CFF4AFF08FEE6FEC582
:1017D000FEA3FE62FE21FE21FE01FDA1FDA1FD6131
:1017E000FD41FD01FCE1FCC1FCA1FC80FC40FC6072
:1017F000FC20FC00FC00FBE0F3A0EB80EB80F3801E
:10180000F3C0F3C0EB80EBA0EB80EB80EB80F380C8
:1018100083210BE10CA204200340CF59EF9DF7FE7A
:1018200096911D421E021DC215620CC13CA3C6CC7E
:10183000F78FFF90FFB0FFAEFFAEFFADFFADFF4BE8
:10184000FF2AFF29FF28FEC5FE01FD81FDA1FD61E4
:10185000FD41FD01FCE1FCC1FCA0FC80FC40FC6002
:10186000FC20FC00FC00FC00F3C0F3A0F3A0F3A0FC
:10187000F3A0EB80E360E360E360E380E3609B015F
:1018800022E10BE103800340AED5F7DEE7BCEF9D1C
:10189000F7FE9ED31D030540156215820D420C8193
:1018A0001C814D03652464E464C48D25BDC7EE88A6
:1018B000FF0AFF4AFF6BFF2DFEAAFE24FD61FD40DB
:1018C000FD21FD00FCE0FCC1FCA1FC80FC40FC60B3
:1018D000FC20FC00FC20FC00FBC0F3A1CB61A300BA
:1018E0008301732163015B015B01530032E013212B
:1018F0000B81032023C4C717F7FDEF9DEF9DE7BCC5
:10190000EF9DF7DECF78558904A005000D411562E3
:101910000D820D410D41050104C1044103C00B605E
:101920003AE09BC2D525F689FF2CFF2FFECCFE079F
:10193000FD63FD01FCE1FCC1FCA0FCA0FC60FC40DF
:10194000FC20F3C0E3A0D340AB214AA01301034124
:10195000038103C103C103C103A103C103A1038028
:101960000B816D4DE7BCF7DEE79CE79CEF9CEF9C9D
:10197000E7BCEF9CEFDDF7FDAED54D480C81048050
:101980000CC00CE10D010D0115010CE10CE10CC1C5
:10199000044113205A808280B443DDA6FEEBFEECA6
:1019A000FECCFE29FDC6FD65FCE3FC61F400E3A06E
:1019B000CB60B32092A092C12AC003610BC10BE19E
:1019C0000BC10BC10BC10BE103E003C01C236D4C29
:1019D000CF39F7FEEFBDE79CE7BCE79CEFBCE7BC67
:1019E000EF9CE79CE79CEFBCF7DEF7FECF586D6CF1
:1019F000246304000420046004600CA10CA10CA169
:101A00000C81046113A18B828A806A408AC0AB80FA
:101A1000CC62E4A3ECA2E462DC01CB81B3009AC007
:101A20007A807A80AB00732203410BC10BC103A003
:101A30000380038003A01C0244679632DF9AF7FEFE
:101A4000EFBDE79CE79CE79CE79CEF9CEFBCEFBCFD
:101A5000EFBCEFBCEFBCEF9CE7BCE7BCEFBDFFFE0B
:101A6000EFDDBED675AE3C8713E203A003A003C032
:101A700003C003C003C03BC1E528BBE482A06A40A9
:101A80006A206A40724072407260726072607A804E
:101A900092C0C361E42322A00320032003401BA3C0
:101AA0003C47758E9E52D77AF7FEF7FEEF9DE7BC56
:101AB000E79CE79CE79CE79CE79CEF9CEFBCEFBCB6
:101AC000EFBCEFBCEFBCEF9CEFBCEF9CEFBCEF9C1E
:101AD000EFBDEFDEF7FEF7FEDF9BBEF796127D8EC1
:101AE0005D0B4CA923C403419443FDA8FDC9D44315
:101AF000AB209AC092C092E092C0A2E0B320CB602B
:101B0000EBC1FC017B20028044488DF1BF17E7DC6C
:101B1000F7FEF7FEF7DEEFBDEF9CE79CE79CE79C46
:101B2000E79CE79CE79CE79CE79CE79CEFBCEFBC4D
:101B3000EFBCEFBCEFBCEFBCEF9CEFBCE7BCE7BC7D
:101B4000EF9CEFBCEF9CEFBCEFBDF7DDF7DEF7FEDF
:101B5000F7FEF7FEEFDDE7DCC6D5DC85FC82FD4550
:101B6000FCA4F422EBE1E3A1DBA1DBA1E3A1EBC048
:101B7000E3609B637D0ED75AF7FDF7DEEFBDEF9D67
:101B8000E79CE79CE79CE79CE79CE79CE79CE79C3D
:101B9000E79CE79CE79CE79CE79CE79CEFBCEFBCDD
:101BA000EFBCEFBCEFBCEFBCEFBCEF9CEF9CEFBC1D
:101BB000E7BCE79CE7BCEF9CE79CE79CE79CEF9CBD
:101BC000EF9CEF9CEFBCEFBDEFFEE75AD468EBC093
:101BD000FBE1F3E1F3E0EBA0EBA0EB80DB60CB619A
:101BE000D56EDF9BF7FEEFBDEF9CE79CE79CE79C83
:101BF000E79CE79CE79CE79CE79CE79CE79CE79CCD
:101C0000E79CE79CE79CE79CE79CE79CEFBCEFBC6C
:101C1000EFBCEFBCEFBCEFBCEFBCEFBCEFBCEFBC6C
:101C2000EFBCEFBCEFBCEFBCEFBCEFBCEFBCEFBC5C
:101C3000EFBCE7BCEF9CE7BCEFBCEFDDF7FE848AAE
:101C400082C0BB61C340BB40BB618B0052C0CE951C
:101C5000F7FFEFBDEF9CE79CEF9CE7BCE79CE79CA0
:101C6000E79CE79CE79CE79CE79CE79CE79CE79C5C
:101C7000E79CE79CE79CE79CE79CE79CEFBCEFBCFC
:101C8000EFBCEFBCEFBCEFBCEFBCEFBCEFBCEFBCFC
:101C9000EFBCEFBCEFBCEFBCEFBCEFBCEFBCEFBCEC
:101CA000EFBCEF9CE7BCEF9CEF9DEFBCF7FF656CD2
:101CB00003600AE01AC01AC012A002C002A0BF1737
:101CC000EFDDE79CE79CE79CE79CE79CE79CE79CB3
:101CD000E79CE79CE79CE79CE79CE79CE79CE79CEC
:101CE000E79CE79CE79CE79CE79CE79CEFBCEFBC8C
:101CF000EFBCEFBCEFBCEFBCEFBCEFBCEFBCEFBC8C
:101D0000EFBCEFBCEFBCEFBCEFBCEFBCEFBCEFBC7B
:101D1000EFBCEF9CEF9CEFBCE7BCEFBCFFFF656C3A
:101D200014A10C01034003200300030002E0AEB540
:101D3000EFDDE79CE79CE79CE79CE79CE79CE79C42
:101D4000E79CE79CE79CE79CE79CE79CE79CE79C7B
:101D5000E79CE79CE79CE79CE79CE79CEFBCEFBC1B
:101D6000EFBCEFBCEFBCEFBCEFBCEFBCEFBCEFBC1B
:101D7000EFBCEFBCEFBCEF9CE7BCE7BCEF9CEF9C7B
:101D8000E7BCEF9CE7BCE7BCEF9DFFDFC75834E53D
:101D90002D6414C10C0003400300030002E08DD049
:101DA000FFFFEF9DE79CE79CE79CE79CE79CE79C97
:101DB000E79CE79CE79CE79CE79CE79CE79CE79C0B
:101DC000E79CE79CE79CE79CE79CE79CEFBCEFBCAB
:101DD000EFBCEFBCEFBCEFBCEFBCEFBCEFBCEFBCAB
:101DE000EFBCEFBCEF9CE7BCEFBCEF9CEF9CEF9C23
:101DF000EF9CEF9CEFBDF7DEE7DB8E912D0435C540
:101E00002DE40D010C800BC00B40030003001342B6
:101E10009E73EFDCF7FEEFBDE79CE79CE79CE79C39
:101E2000E79CE79CE79CE79CE79CE79CE79CE79C9A
:101E3000E79CE79CE79CE79CE79CE79CEFBCEFBC3A
:101E4000EFBCEFBCEFBCEFBCEFBCEFBCEFBCEFBC3A
:101E5000EFBCEFBCE79CEFBCEFBCEF9CE7BCE7BC82
:101E6000EFBDF7DEE7DC96313CC6254335E52DE4D2
:101E70000DA00D400CE00C200B800B40032002E075
:101E800002C023C4756EDF9AF7FEEFBDE79CE79CA6
:101E9000E79CE79CE79CE79CE79CE79CE79CE79C2A
:101EA000E79CE79CE79CE79CE79CE79CEFBCEFBCCA
:101EB000EFBCEFBCEFBCEFBCEFBCEFBCEFBCEFBCCA
:101EC000EFBCEFBCE7BCEF9CE79CE7BCEFBDF7FEC7
:101ED000E7BC85F03C862CE4460746272DE415C177
:101EE00015A10D600D200C800BE00B800B60032012
:101EF0000300030002E00B416D4CDF9AF7FFEFBDDA
:101F0000E79CE79CE79CE79CE79CE79CE79CE79CB9
:101F1000E79CE79CE79CE79CE79CE79CEFBCEFBC59
:101F2000EFBCEFBCEFBCEFBCEFBCEFBCEFBCEFBC59
:101F3000EFBCEFBCEF9CE7BCEF9CF7DDE7BC8DF19D
:101F40003CA74D4856094E2846072DC41DC215C151
:101F5000158015800D400CC00C600C000BA00B60B0
:101F600003400320030003000300138175AEDFDB91
:101F7000F7DEE79CE79CE79CE79CE79CE79CE79CF7
:101F8000E79CE79CE79CE79CE79CE79CEFBCEFBCE9
:101F9000EFBCEFBCEFBCEFBCEFBCEFBCEFBCEFBCE9
:101FA000EFBCEFBCEF9CE7BCF7DEB6F63C463CC6A8
:101FB0007E6E6E6D4E2835E42DC31DC215A11580B1
:101FC000158015800D6015200CA00C400BE00BC097
:101FD0000B800B400B2003200300034003202C2523
:101FE000BF16F7FEEF9CE79CE79CE79CE79CE79C0D
:101FF000E79CE79CE79CE79CE79CE79CE7BCE7BC89
:10200000E7BCE7BCE7BCE7BCE7BCE7BCE7BCE7BCB8
:10201000E7BCE7BCE79CEFDDC73724633D06764E9F
:102020007E6F560935E525C31DC315C10DA015806A
:1020300015A00D800D600D400D000C800C200BE0F4
:102040000BC00B800B800B600B4003200340036030
:102050000360A694F7DDE79CE79CE79CE79CE79C80
:10206000E79CE79CE79CE79CE79CE79CEF9CEF9C48
:10207000EF9CEF9CEF9CEF9CEF9CEF9CEF9CEF9C08
:10208000EF9CEF9CEF9CF7FE5D2A34A66DEC8E90E2
:10209000764E4DE82DA425C31DA31DA21561156123
:1020A0001541154115411521150114A114410BE0ED
:1020B0000BC10BC10BA00B800B600B610B400B2104
:1020C000032023C4E7BCE79DE79CE79CE79CE79CD3
:1020D000E79CE79CE79CE79CE79CE79CBB010689A3
:1020E000828A83E0225002E722BBFE02E322898239
:1020F0008A83E49322BB010CE58229F582E5833AC9
:10210000F583E0225006E92582F8E622BBFE06E9C7
:102110002582F8E222E58229F582E5833AF583E417
:102120009322EF8DF0A4A8F0CF8CF0A428CE8DF0F0
:10213000A42EFE22C2D5EC30E709B2D5E4C39DFD42
:10214000E49CFCEE30E715B2D5E4C39FFFE49EFEAD
:1021500012230FC3E49DFDE49CFC800312230F3087
:10216000D507C3E49FFFE49EFE22BB0110E5822950
:10217000F582E5833AF583E0F5F0A3E0225009E922
:102180002582F886F008E622BBFE0AE92582F8E2FD
:10219000F5F008E222E5832AF583E993F5F0A3E957
:1021A0009322E88FF0A4CC8BF0A42CFCE98EF0A451
:1021B0002CFC8AF0EDA42CFCEA8EF0A4CDA8F08BC8
:1021C000F0A42DCC3825F0FDE98FF0A42CCD35F00E
:1021D000FCEB8EF0A4FEA9F0EB8FF0A4CFC5F02E9F
:1021E000CD39FEE43CFCEAA42DCE35F0FDE43CFC08
:1021F0002275F008758200EF2FFFEE33FECD33CD50
:10220000CC33CCC58233C5829BED9AEC99E582989C
:10221000400CF582EE9BFEED9AFDEC99FC0FD5F09B
:10222000D6E4CEFBE4CDFAE4CCF9A88222B800C112
:10223000B90059BA002DEC8BF084CFCECDFCE5F07F
:10224000CBF97818EF2FFFEE33FEED33FDEC33FCC6
:10225000EB33FB10D703994004EB99FB0FD8E5E46F
:10226000F9FA227818EF2FFFEE33FEED33FDEC3351
:10227000FCC933C910D7059BE99A4007EC9BFCE9E0
:102280009AF90FD8E0E4C9FAE4CCFB2275F010EF1C
:102290002FFFEE33FEED33FDCC33CCC833C810D75F
:1022A000079BEC9AE899400AED9BFDEC9AFCE899B3
:1022B000F80FD5F0DAE4CDFBE4CCFAE4C8F92274E7
:1022C00001FF3395E0FEFDFC080808E6CF2FF61865
:1022D000E6CE3EF618E6CD3DF618E6CC3CF622BB3F
:1022E000010DE58229F582E5833AF58302236D50DD
:1022F00007E92582F8022364BBFE07E92582F8027C
:102300002376E58229F582E5833AF58302237FBCB3
:10231000000BBE0029EF8DF084FFADF022E4CCF875
:1023200075F008EF2FFFEE33FEEC33FCEE9DEC98DA
:102330004005FCEE9DFE0FD5F0E9E4CEFD22EDF860
:10234000F5F0EE8420D21CFEADF075F008EF2FFF03
:10235000ED33FD4007985006D5F0F222C398FD0FEB
:10236000D5F0EA22E6FB08E6FA08E6F922E0FBA34C
:10237000E0FAA3E0F922E2FB08E2FA08E2F922E43B
:1023800093FB740193FA740293F9228B108A1189DA
:10239000128D1385141CE94A4B70030225489000E6
:1023A000071222DF8B1D8A1E891FE94A4B70030228
:1023B0002548AB10AA11A91290000512216AF51840
:1023C00085F0179000031220F57003022478E4F5DD
:1023D00015F516C3E5169518E5176480F8E515643C
:1023E00080984003022539E5162518FFE5153517B5
:1023F000FE7C007D021221348E198F1AAB10AA11B7
:10240000A9129000021220F56024E51A25E0FFE5EC
:102410001933FEAB1DAA1EA91F8F82F5831220F56A
:10242000F51B8F828E83A31220F5F51C8011AB1D46
:10243000AA1EA91F851A828519831220F5F51BE5AE
:102440001B65137009E51C651470030224E0E51B8D
:10245000D39513500CE51BB51310E51CD395144010
:1024600009851917851A180223D3E51A2401F516D0
:10247000E43519F5150223D3E4F519F51AC3E51A65
:102480009518E5176480F8E51964809840030225E3
:1024900039AB10AA11A9129000021220F56024E5B0
:1024A0001A25E0FFE51933FEAB1DAA1EA91F8F8276
:1024B000F5831220F5F51B8F828E83A31220F5F58C
:1024C0001C8011AB1DAA1EA91F851A8285198312B3
:1024D00020F5F51BE51B65137054E51C6514704E63
:1024E000AB10AA11A9129000041220F5FF7E00ACD7
:1024F00019AD1A12212290000A1222DFE92FF9EAFF
:102500003EFAC003C002C001AB10AA11A9121220EA
:10251000DCFD9000011220F5F524D001D002D0039B
:10252000122680AB10AA11A9121220DC8016051AFF
:10253000E51A7002051902247DAB10AA11A9121226
:1025400020DCC313FF122B8222122ACAE4FF122AB4
:10255000CC122ACA7F11122BBC7F787E00122AD39C
:102560007F36122BBC7F48122BA37F3A122BBC7FE5
:1025700005122BA37FB2122BBC7F1F122BA0E4FFEE
:10258000122BA37F33122BA07FB7122BBC7F3512E7
:102590002BA37FBB122BBC7F2B122BA37FC0122B34
:1025A000BC7F2C122BA37FC2122BBC7F01122BA34A
:1025B0007FC3122BBC7F0F122BA37FC4122BBC7FB7
:1025C00020122BA37FC6122BBC7F13122BA37FD00C
:1025D000122BBC7FA4122BA37FA1122BA37FD61298
:1025E0002BBC7FA1122BA37FE0122BBC7FF0122B00
:1025F000A37F04122BA37F07122BA37F04122BA30C
:10260000122BA3122BA37F25122BA37F33122BA3F4
:102610007F3C122BA37F36122BA37F14122BA37F98
:1026200012122BA37F29122BA37F30122BA37FE141
:10263000122BBC7FF0122BA37F02122BA37F04125C
:102640002BA30F122BA3122BA37F21122BA37F25C9
:10265000122BA37F32122BA37F3B122BA37F3812A6
:102660002BA37F12122BA37F14122BA37F27122BD5
:10267000A37F31122BA37F21122BBC7F29022BBCFD
:102680008B208A2189228D23E4F525E525C3952415
:1026900040030227347E00E53B2525F528EE353A38
:1026A000F527AF23E5392523CFEE3538CF24FFFBBF
:1026B000EF34FFFA852732852833AD28AC27AF39B0
:1026C000AE38122A21EF606CE525131313541F75E1
:1026D0002700F528E5255407FF7401A807088002A4
:1026E000C333D8FCF526AF237E00AC27AD281221DA
:1026F00022E5222FF9E5213E852029F52A892BE4C0
:10270000FCECC395235028AB29AA2AA92BAF040CB3
:102710008F827583001220F555266006AE34AF35E2
:102720008004AE36AF378E278F28122B2580D20536
:102730002502268B228B088A09890AE53D453E45FC
:102740003C6008AB3CAA3DA93E8006AB3FAA40A92D
:10275000418B0D8A0E890FE50A4509450870030271
:1027600027E3E94A4B607C9000011220F5F50C60EC
:1027700072AB08050AE50AAA097002050914F912E4
:1027800020DCF50B605DB40D07E4F538F53980E128
:10279000E50BB40A12E4F538F539E50C253BF53BB9
:1027A000E4353AF53A80CAE50BC394805015E50B41
:1027B000C394205003750B20AB3CAA3DA93EE4F521
:1027C000148019AB08050AE50AAA09700205091464
:1027D000F91220DCF514AB3FAA40A941AD0B12233E
:1027E0008B808E227F1F7E00122BC174FFFFFE1292
:1027F0002BC6FB7A03797C122BA87A08794F122B0F
:10280000AF122BB67D667F64122B5D7BFF7A087951
:102810005C750D00750E387D381228857D627FA0AD
:10282000122B5D7BFF7A0079397524407D4012269A
:10283000807F007EF8122BC17DA67C007F387E0051
:10284000122B617BFF7A007903122735E4FFFE1219
:102850002BC17DBAFC7F38122B617BFF7A00791384
:102860001227357F407EBC122BC17DCE7C007F2499
:102870007E00122B617BFF7A0079221227357F20A0
:102880007E4E022AD38B138A148915EDC4F8540F97
:10289000C868FFECC454F048FEEF7803CEC313CEF3
:1028A00013D8F9F5178E16E5392DCFE5383CCF242E
:1028B000FFFBEF34FFFAE53B250ECFE53A350DCFB0
:1028C00024FFF533EF34FFF532AD3BAC3AAF39AE10
:1028D00038122A21E4F50FF510C3E510950EE50F27
:1028E000950D5039E4F511F512C3E5129517E51170
:1028F0009516501FAB130515E515AA1470020514A3
:1029000014F91220DCFF122BA30512E51270DA0570
:102910001180D60510E51070C0050F80BC22787FAD
:10292000E4F6D8FD758145022965022B03E493A3E3
:10293000F8E493A34003F68001F208DFF48029E471
:1029400093A3F85407240CC8C333C4540F4420C8BD
:10295000834004F456800146F6DFE4800B01020454
:102960000810204080902B14E47E019360BCA3FFEC
:10297000543F30E509541FFEE493A360010ECF5489
:10298000C025E060A840B8E493A3FAE493A3F8E478
:1029900093A3C8C582C8CAC583CAF0A3C8C582C8E4
:1029A000CAC583CADFE9DEE780BE8F08A905E4F562
:1029B00009F50AE50A5407FF7401A807088002C355
:1029C00033D8FCF50B850932850A337B3F7A01AD9C
:1029D0000AAC09E4FFFE122A21900000C3E58294AC
:1029E00040E583940150280582E582700205831436
:1029F000AF0830E002AF01E50B5F6006AE34AF35E3
:102A00008004AE36AF378E0C8F0D122B2580CD058E
:102A10000AE50A70020509C39440E5099401409350
:102A2000228E2C8F2D8C2E8D2F8B828A83C3E52DA9
:102A30009440E52C9401500BC3E52F9440E52E946F
:102A40000140037F0022D3E5829440E58394014056
:102A500003900140D3E5339440E53294014006757C
:102A600032017533407F2A122BBCAF2DAE2C122BB6
:102A700025AF82AE83122B257F2B122BBCAF2FAE3E
:102A80002E122B25AF33AE32122B257F2C122BBCEE
:102A90007F0122E4FCFD7B407A0B79F5F81221A23C
:102AA000E47B207A4EF9F812222DE47BE87A03F9D0
:102AB000F812222D8F458E448D438C42784274FF4C
:102AC0001222C1EC4D4E4F70F3227F01122B977FE3
:102AD000647E007D227C03ED1D70011C144C70F798
:102AE000EF1FAC0670011E4C70E922AC03AB05E48D
:102AF000FDD2B0ED24FF92B5C2B7C2B18F90D2B172
:102B0000D2B722122BCB122B761225491227E412B0
:102B1000254980F80E34F800000000000000000095
:102B20000000000000AB07AA06AF027D01122AF1E7
:102B3000AF03022AF1122AEBAF030D122AF1AF0400
:102B4000022AF1122AEBAF03122AF1AF04022AF192
:102B5000AE05E4FD122AF1AF060D022AF17C007EDB
:102B6000008E388F398C3A8D3B22AE05E4FD122A57
:102B7000F1AF06022AF17592FFE4F59175B2FFF507
:102B8000B122EF2539F539E43538F53822AE071F83
:102B9000EED3940050F722EF6003D2B622C2B622E1
:102BA000122BA37D01022AF18B3C8A3D893E228BA8
:102BB0003F8A40894122E4FDFF0229AAE4FD022A5E
:0C2BC000F18E348F35228E368F372222A2
:00000001FF
